:10000000174100001301C1FF1305D0509305D050D4
:100010006378B50023200500130545006FF05FFFEE
:10002000EF0080006F000000130101FF130500477F
:100030002326110023248100232291002320210163
:10004000EF008016B7F5FA0293850508130580487E
:10005000EF00001CB70500401305004AEF00401BED
:100060001305404BEF004014130400001309804CAB
:10007000B7040040EF008016E30E05FEEF004017C6
:1000800013060500930605009305040013050900F7
:10009000EF00001883A704001304140093C7070897
:1000A00023A0F4006FF01FFD37170040130747002F
:1000B0008327070093F71700E39C07FEB71700405C
:1000C00023A0A70067800000130101FB2324810403
:1000D000232611042322910423202105232E3103FA
:1000E000232C4103232A510313040500630A06024B
:1000F0001309804E631A0402032481048320C1047F
:1001000083244104032901048329C103032A8103B1
:10011000832A410313050003130101056FF0DFF883
:100120001309C04F6FF01FFD9309010193040000F4
:10013000938A0900130504002326B100EF00002D67
:100140003305A900834705008325C100130504007A
:100150002380F900EF0000278325C100130A040063
:10016000938414001304050093891900E374BAFC06
:100170009384F4FFB3879A0003C50700EFF0DFF222
:10018000E39804FE8320C1040324810483244104F2
:10019000032901048329C103032A8103832A41031C
:1001A0001301010567800000130101FF2324810072
:1001B000232611001304050003450400631A0500FB
:1001C0008320C10003248100130101016780000026
:1001D00013041400EFF05FED6FF01FFEB71700403F
:1001E00003A587001355850013751500678000006F
:1001F000B71700409387870003A7070013770710FE
:10020000E30C07FE03A507001375F50F67800000D8
:10021000130101FA232AF10493074104232C8102DC
:10022000232A91022326310323244103232251034D
:1002300023206103232E7101232C8101232E11021F
:1002400023282103130405002322B1042324C1041D
:100250002326D1042328E104232C0105232E110594
:100260002326F1009304500293094006130A500715
:10027000930A8007130B3007930B8005130C30068D
:1002800003450400631A05028320C103032481038C
:1002900083244103032901038329C102032A810224
:1002A000832A4102032B0102832BC101032C81010C
:1002B0001301010667800000630895001304140011
:1002C000EFF09FDE6FF0DFFB834714006386370596
:1002D00063E2F902638E770B6386870D1385040052
:1002E000638A970C13055002EFF01FDC03451400DE
:1002F0006F00400C6384470763805709E39467FFEE
:100300008327C10003A50700138747002326E100C8
:10031000EFF09FE96F0000038327C10003A90700E6
:10032000138747002326E100635209021305D00218
:10033000EFF09FD7130600009305A000330520417E
:10034000EFF09FD8130424006FF09FF31306000012
:100350009305A000130509006FF09FFE8327C100DD
:10036000130600009305A000138747002326E10031
:1003700003A507006FF0DFFC8327C1001306000010
:10038000138747002326E100930500016FF05FFE0D
:100390008327C10013061000138747002326E100BE
:1003A0006FF09FFE8327C10003C507001387470036
:1003B0002326E100EFF05FCF6FF0DFF86340050622
:1003C00063C6050613860500930505001305F0FFB7
:1003D000630C060293061000637AB6006358C000EF
:1003E0001316160093961600E36AB6FE1305000076
:1003F00063E6C500B385C5403365D50093D61600C6
:1004000013561600E39606FE6780000093820000F4
:10041000EFF05FFB13850500678002003305A04005
:100420006348B000B305B0406FF0DFF9B305B040EA
:1004300093820000EFF01FF93305A04067800200AF
:100440009382000063CA0500634C0500EFF09FF73C
:100450001385050067800200B305B040E35805FE30
:100460003305A040EFF01FF63305B040678002006F
:100470004445302D5249534356204D435520626F19
:100480006F7465640D0A000053797374656D2063A1
:100490006C6F636B3A20257520487A0D0A000000C6
:1004A0004750494F20616464726573733A20257820
:1004B0000D0A0000547970652061206368617261E3
:1004C000637465723A0D0A005B25645D20526563B2
:1004D00065697665643A20272563272028307825CA
:1004E00078290D0A000000003031323334353637B8
:1004F0003839414243444546000000003031323330
:0D0500003435363738396162636465660052
:00000001FF
