:040000006F00C011BC
:10001000130101FC2320110023225100232461003D
:10002000232671002328C101232AD101232CE101B9
:10003000232EF1012320A1022322B1022324C10295
:100040002326D1022328E102232AF102232C0103D3
:10005000232E1103EF008041832001008322410001
:10006000032381008323C100032E0101832E41015C
:10007000032F8101832FC101032501028325410242
:10008000032681028326C10203270103832741033C
:10009000032881038328C103130101040B0000041A
:1000A000130101FD1305405623261102232481026A
:1000B0002322910223202103232E3101EF008018F7
:1000C00037C5000013050535EF00003913050000A2
:1000D0000B65050613054057EF00C016130400001A
:1000E0001309703E93090059B7040040EF00803AAD
:1000F000B307854093050500E37AF9FE2326A100A6
:1001000013850900EF00801A83A704000324C100AF
:1001100093C7070823A0F4006FF05FFD17410000AC
:10012000130101EE1305505C9305505C6378B50034
:1001300023200500130545006FF05FFFEFF05FF629
:100140006F000000371700401307470083270700A0
:1001500093F71700E39C07FEB717004023A0A70002
:1001600067800000130101FB23248104232611046E
:100170002322910423202105232E3103232C410324
:10018000232A510313040500630A06021309005AC7
:10019000631A0402032481048320C10483244104DC
:1001A000032901048329C103032A8103832A41030C
:1001B00013050003130101056FF0DFF81309405B1D
:1001C0006FF01FFD9309010193040000938A090059
:1001D000130504002326B100EF0080323305A90087
:1001E000834705008325C100130504002380F9001F
:1001F000EF00802C8325C100130A040093841400AF
:100200001304050093891900E374BAFC9384F4FF86
:10021000B3879A0003C50700EFF0DFF2E39804FE0E
:100220008320C1040324810483244104032901049D
:100230008329C103032A8103832A41031301010592
:1002400067800000130101FF232481002326110091
:100250001304050003450400631A05008320C10050
:1002600003248100130101016780000013041400BE
:10027000EFF05FED6FF01FFEB717004003A587009A
:10028000135585001375150067800000B7170040EF
:100290009387870003A7070013770710E30C07FE77
:1002A00003A507001375F50F67800000130101FA1D
:1002B000232AF10493074104232C8102232A91026B
:1002C00023263103232441032322510323206103E6
:1002D000232E7101232C8101232E110223282103B7
:1002E000130405002322B1042324C1042326D104CE
:1002F0002328E104232C0105232E11052326F100D8
:100300009304500293094006130A5007930A80078A
:10031000130B3007930B8005130C300603450400C4
:10032000631A05028320C10303248103832441034C
:10033000032901038329C102032A8102832A41027E
:10034000032B0102832BC101032C81011301010640
:10035000678000006308950013041400EFF09FDE2F
:100360006FF0DFFB834714006386370563E2F90211
:10037000638E770B6386870D13850400638A970C61
:1003800013055002EFF01FDC034514006F00400C12
:100390006384470763805709E39467FF8327C1009D
:1003A00003A50700138747002326E100EFF09FE92C
:1003B0006F0000038327C10003A9070013874700CC
:1003C0002326E100635209021305D002EFF09FD704
:1003D000130600009305A00033052041EFF09FD8DD
:1003E000130424006FF09FF3130600009305A00090
:1003F000130509006FF09FFE8327C100130600005C
:100400009305A000138747002326E10003A50700FA
:100410006FF0DFFC8327C10013060000138747003D
:100420002326E100930500016FF05FFE8327C100E2
:1004300013061000138747002326E1006FF09FFE8C
:100440008327C10003C50700138747002326E10067
:10045000EFF05FCF6FF0DFF8B727004023A2A700CF
:100460001307100023A0E700678000003727004033
:100470008327070093F72700638C07008327805C9E
:10048000938717002324F05C930730002320F700A4
:10049000678000000325805C678000008326805C05
:1004A0008327805CB387D740E3ECA7FE678000001A
:1004B0006340050663C6050613860500930505001F
:1004C0001305F0FF630C060293061000637AB60072
:1004D0006358C0001316160093961600E36AB6FE22
:1004E0001305000063E6C500B385C5403365D5003C
:1004F00093D6160013561600E39606FE678000009A
:1005000093820000EFF05FFB138505006780020017
:100510003305A0406348B000B305B0406FF0DFF989
:10052000B305B04093820000EFF01FF93305A040FF
:10053000678002009382000063CA0500634C0500D7
:10054000EFF09FF71385050067800200B305B04008
:10055000E35805FE3305A040EFF01FF63305B04029
:0405600067800200AE
:1005640054696D657220746573740D0A000000008F
:1005740054696D657220696E697469616C697A6524
:10058400642028316D73290D0A00000055707469C8
:100594006D653A202575206D730D0A0030313233B4
:1005A400343536373839414243444546000000006B
:1005B40030313233343536373839616263646566D5
:0105C4000036
:00000001FF
